{"abi":[{"type":"constructor","inputs":[{"name":"clients","type":"address[]","internalType":"address[]"},{"name":"freelancers","type":"address[]","internalType":"address[]"},{"name":"milestoneAmounts","type":"uint256[]","internalType":"uint256[]"},{"name":"milestoneDescriptions","type":"string[]","internalType":"string[]"},{"name":"isTimeLock","type":"bool","internalType":"bool"},{"name":"releaseTime","type":"uint256","internalType":"uint256"},{"name":"freelancerPercentages","type":"uint256[]","internalType":"uint256[]"},{"name":"adminCouncilMembers","type":"address[]","internalType":"address[]"}],"stateMutability":"nonpayable"},{"type":"function","name":"ADMIN_FEE_PERCENT","inputs":[],"outputs":[{"name":"","type":"uint256","internalType":"uint256"}],"stateMutability":"view"},{"type":"function","name":"CONSENSUS_THRESHOLD","inputs":[],"outputs":[{"name":"","type":"uint256","internalType":"uint256"}],"stateMutability":"view"},{"type":"function","name":"EMERGENCY_DURATION","inputs":[],"outputs":[{"name":"","type":"uint256","internalType":"uint256"}],"stateMutability":"view"},{"type":"function","name":"MAX_PARTIES","inputs":[],"outputs":[{"name":"","type":"uint256","internalType":"uint256"}],"stateMutability":"view"},{"type":"function","name":"activateEmergency","inputs":[],"outputs":[],"stateMutability":"nonpayable"},{"type":"function","name":"adminCancel","inputs":[],"outputs":[],"stateMutability":"nonpayable"},{"type":"function","name":"adminConsensusCount","inputs":[],"outputs":[{"name":"","type":"uint256","internalType":"uint256"}],"stateMutability":"view"},{"type":"function","name":"adminCouncil","inputs":[{"name":"","type":"uint256","internalType":"uint256"}],"outputs":[{"name":"","type":"address","internalType":"address"}],"stateMutability":"view"},{"type":"function","name":"agreement","inputs":[],"outputs":[{"name":"totalAmount","type":"uint256","internalType":"uint256"},{"name":"milestoneCount","type":"uint256","internalType":"uint256"},{"name":"currentMilestone","type":"uint256","internalType":"uint256"},{"name":"isActive","type":"bool","internalType":"bool"},{"name":"isCancelled","type":"bool","internalType":"bool"},{"name":"isTimeLock","type":"bool","internalType":"bool"},{"name":"releaseTime","type":"uint256","internalType":"uint256"},{"name":"depositedAmount","type":"uint256","internalType":"uint256"},{"name":"netAmount","type":"uint256","internalType":"uint256"}],"stateMutability":"view"},{"type":"function","name":"approvals","inputs":[{"name":"","type":"address","internalType":"address"}],"outputs":[{"name":"","type":"bool","internalType":"bool"}],"stateMutability":"view"},{"type":"function","name":"approveAction","inputs":[{"name":"isRelease","type":"bool","internalType":"bool"}],"outputs":[],"stateMutability":"nonpayable"},{"type":"function","name":"clientContributions","inputs":[{"name":"","type":"address","internalType":"address"}],"outputs":[{"name":"","type":"uint256","internalType":"uint256"}],"stateMutability":"view"},{"type":"function","name":"completeMilestone","inputs":[{"name":"milestoneId","type":"uint256","internalType":"uint256"}],"outputs":[],"stateMutability":"nonpayable"},{"type":"function","name":"deactivateEmergency","inputs":[],"outputs":[],"stateMutability":"nonpayable"},{"type":"function","name":"deposit","inputs":[],"outputs":[],"stateMutability":"payable"},{"type":"function","name":"emergencyActivatedAt","inputs":[],"outputs":[{"name":"","type":"uint256","internalType":"uint256"}],"stateMutability":"view"},{"type":"function","name":"emergencyPaused","inputs":[],"outputs":[{"name":"","type":"bool","internalType":"bool"}],"stateMutability":"view"},{"type":"function","name":"forceRelease","inputs":[],"outputs":[],"stateMutability":"nonpayable"},{"type":"function","name":"freelancerShares","inputs":[{"name":"","type":"uint256","internalType":"uint256"}],"outputs":[{"name":"freelancer","type":"address","internalType":"address"},{"name":"percentage","type":"uint256","internalType":"uint256"}],"stateMutability":"view"},{"type":"function","name":"getContractBalance","inputs":[],"outputs":[{"name":"","type":"uint256","internalType":"uint256"}],"stateMutability":"view"},{"type":"function","name":"getFreelancerShare","inputs":[{"name":"freelancer","type":"address","internalType":"address"}],"outputs":[{"name":"","type":"uint256","internalType":"uint256"}],"stateMutability":"view"},{"type":"function","name":"getMilestone","inputs":[{"name":"milestoneId","type":"uint256","internalType":"uint256"}],"outputs":[{"name":"","type":"tuple","internalType":"struct RavdeskEscrowSecure.Milestone","components":[{"name":"amount","type":"uint256","internalType":"uint256"},{"name":"description","type":"string","internalType":"string"},{"name":"isCompleted","type":"bool","internalType":"bool"},{"name":"isReleased","type":"bool","internalType":"bool"}]}],"stateMutability":"view"},{"type":"function","name":"getPendingWithdrawal","inputs":[{"name":"account","type":"address","internalType":"address"}],"outputs":[{"name":"","type":"uint256","internalType":"uint256"}],"stateMutability":"view"},{"type":"function","name":"isAdmin","inputs":[{"name":"","type":"address","internalType":"address"}],"outputs":[{"name":"","type":"bool","internalType":"bool"}],"stateMutability":"view"},{"type":"function","name":"milestones","inputs":[{"name":"","type":"uint256","internalType":"uint256"}],"outputs":[{"name":"amount","type":"uint256","internalType":"uint256"},{"name":"description","type":"string","internalType":"string"},{"name":"isCompleted","type":"bool","internalType":"bool"},{"name":"isReleased","type":"bool","internalType":"bool"}],"stateMutability":"view"},{"type":"function","name":"pendingWithdrawals","inputs":[{"name":"","type":"address","internalType":"address"}],"outputs":[{"name":"","type":"uint256","internalType":"uint256"}],"stateMutability":"view"},{"type":"function","name":"timeLockRelease","inputs":[],"outputs":[],"stateMutability":"nonpayable"},{"type":"function","name":"totalReleased","inputs":[],"outputs":[{"name":"","type":"uint256","internalType":"uint256"}],"stateMutability":"view"},{"type":"function","name":"withdraw","inputs":[],"outputs":[],"stateMutability":"nonpayable"},{"type":"event","name":"AdminFeePaid","inputs":[{"name":"amount","type":"uint256","indexed":false,"internalType":"uint256"}],"anonymous":false},{"type":"event","name":"ApprovalSubmitted","inputs":[{"name":"approver","type":"address","indexed":true,"internalType":"address"},{"name":"isRelease","type":"bool","indexed":false,"internalType":"bool"}],"anonymous":false},{"type":"event","name":"ContractCancelled","inputs":[{"name":"canceller","type":"address","indexed":true,"internalType":"address"}],"anonymous":false},{"type":"event","name":"ContractFunded","inputs":[{"name":"totalAmount","type":"uint256","indexed":false,"internalType":"uint256"},{"name":"netAmount","type":"uint256","indexed":false,"internalType":"uint256"}],"anonymous":false},{"type":"event","name":"Deposited","inputs":[{"name":"client","type":"address","indexed":true,"internalType":"address"},{"name":"amount","type":"uint256","indexed":false,"internalType":"uint256"}],"anonymous":false},{"type":"event","name":"EmergencyActivated","inputs":[{"name":"activator","type":"address","indexed":true,"internalType":"address"}],"anonymous":false},{"type":"event","name":"EmergencyDeactivated","inputs":[],"anonymous":false},{"type":"event","name":"FundsReleased","inputs":[{"name":"milestoneId","type":"uint256","indexed":true,"internalType":"uint256"},{"name":"amount","type":"uint256","indexed":false,"internalType":"uint256"}],"anonymous":false},{"type":"event","name":"MilestoneCompleted","inputs":[{"name":"milestoneId","type":"uint256","indexed":true,"internalType":"uint256"},{"name":"description","type":"string","indexed":false,"internalType":"string"}],"anonymous":false},{"type":"event","name":"WithdrawalQueued","inputs":[{"name":"recipient","type":"address","indexed":true,"internalType":"address"},{"name":"amount","type":"uint256","indexed":false,"internalType":"uint256"}],"anonymous":false}],"bytecode":{"object":"0x60806040523462000af15762002b76803803806200001d8162000bce565b92833961010082828101031262000af15781516001600160401b03811162000af157620000509082840190840162000c0c565b60208301519091906001600160401b03811162000af157620000789082850190850162000c0c565b60408401519091906001600160401b03811162000af157620000a09082860190860162000c7a565b606085015190946001600160401b03821162000af157828101601f83830101121562000af1578181015191620000e0620000da8462000bf4565b62000bce565b926020848281520185840160208360051b85870101011162000af157602083850101905b60208360051b8587010101821062000af55750505050608081015192831515840362000af15760a082015160c08301519091906001600160401b03811162000af157620001579082850190850162000c7a565b60e08401519093906001600160401b03811162000af1576200017d928201910162000c0c565b9660016012558651801515908162000ae4575b501562000a9f578551801515908162000a92575b501562000a4d578551835103620009fe57805180620009aa575b508751600381101590816200099d575b501562000958575f5b885181101562000302576001600160a01b03620001f5828b62000ce6565b511615620002bd576001600160a01b0362000211828b62000ce6565b511690600e91825468010000000000000000811015620002a9576001810180855581101562000295575f938452602090932090920180546001600160a01b0319169092179091556200028f906001600160a01b0362000271828c62000ce6565b51165f52600f60205260405f20600160ff1982541617905562000cd7565b620001d7565b634e487b7160e01b5f52603260045260245ffd5b634e487b7160e01b5f52604160045260245ffd5b60405162461bcd60e51b815260206004820152601560248201527f496e76616c69642061646d696e206164647265737300000000000000000000006044820152606490fd5b508651876001600160401b038211620002a957680100000000000000008211620002a9576020905f54835f558084106200093a575b50015f805260205f205f5b8381106200091c57505087519150506001600160401b038111620002a957680100000000000000008111620002a95760015481600155808210620008df575b5060208701908160015f5260205f205f5b838110620008c15750506005805462ffffff191689151560101b62ff000016179055505086516001811115620008855750505f93845b8751861015620004aa57620003de868662000ce6565b5115158062000492575b1562000458576200040b620004519162000403888862000ce6565b519062000d13565b956200044b6001600160a01b0362000424838c62000ce6565b511662000432838962000ce6565b516200043d62000bae565b918252602082015262000d21565b62000cd7565b94620003c8565b60405162461bcd60e51b8152602060048201526012602482015271496e76616c69642070657263656e7461676560701b6044820152606490fd5b506064620004a1878762000ce6565b511115620003e8565b91959350935060649195500362000840575b1562000549575050606443018043116200053557811115620004f0576006555b5f600755604051611e01908162000d758239f35b60405162461bcd60e51b815260206004820152601c60248201527f52656c65617365206d7573742062652066757475726520626c6f636b000000006044820152606490fd5b634e487b7160e01b5f52601160045260245ffd5b908092505115620007fb5781516003555f6004555f805b83518210156200058d576200057f620005869162000403848762000ce6565b9162000cd7565b9062000560565b9050919091806002558060021b81810460041482151715620005355760649004810381811162000535576008555f5b8251811015620007f157620005d2818462000ce6565b5160085490808281020482148115171562000535578315620007dd57620005fa838762000ce6565b51604051929091906001600160401b036080850190811190851117620002a95785916080850160405202048252602082019081525f60408301525f6060830152825f52600960205260405f2090825182555180519060018060401b038211620002a9576001830154600181811c91168015620007d2575b6020821014620007be57601f81116200077b575b50602090601f831160011462000701579180620006ef969594926002945f92620006f5575b50508160011b915f199060031b1c19161760018201555b0190604081015115159060ff61ff0060608554930151151560081b1692169061ffff19161717905562000cd7565b620005bc565b015190508a80620006aa565b90600184015f5260205f20915f5b601f198516811062000762575092620006ef9695949260019260029583601f1981161062000749575b505050811b016001820155620006c1565b01515f1960f88460031b161c191690558a808062000738565b919260206001819286850151815501940192016200070f565b620007ac90600185015f5260205f20601f850160051c81019160208610620007b3575b601f0160051c019062000cfb565b8862000685565b90915081906200079e565b634e487b7160e01b5f52602260045260245ffd5b90607f169062000671565b634e487b7160e01b5f52601260045260245ffd5b50505050620004dc565b60405162461bcd60e51b815260206004820152601660248201527f4e6f206d696c6573746f6e65732070726f7669646564000000000000000000006044820152606490fd5b60405162461bcd60e51b815260206004820152601b60248201527f50657263656e7461676573206d7573742073756d20746f2031303000000000006044820152606490fd5b9195935091955015620002955751620008bb906001600160a01b0316620008ab62000bae565b9081526064602082015262000d21565b620004bc565b82516001600160a01b03168183015560209092019160010162000392565b60015f5262000915907fb10e2d527612073b26eecdfd717e6a320cf44b4afac2b0732d9fcbe2b7fa0cf690810190830162000cfb565b8762000381565b82516001600160a01b03168183015560209092019160010162000342565b62000951905f805284845f20918201910162000cfb565b8962000337565b60405162461bcd60e51b815260206004820152601a60248201527f496e76616c69642061646d696e20636f756e63696c2073697a650000000000006044820152606490fd5b6007915011155f620001ce565b845103620009b9575f620001be565b60405162461bcd60e51b815260206004820152601560248201527f4d69736d617463686564206d696c6573746f6e657300000000000000000000006044820152606490fd5b60405162461bcd60e51b815260206004820152602160248201527f4d69736d61746368656420667265656c616e6365722070657263656e746167656044820152607360f81b6064820152608490fd5b60405162461bcd60e51b815260206004820152601860248201527f496e76616c696420667265656c616e63657220636f756e7400000000000000006044820152606490fd5b600a915011155f620001a4565b60405162461bcd60e51b815260206004820152601460248201527f496e76616c696420636c69656e7420636f756e740000000000000000000000006044820152606490fd5b600a915011155f62000190565b5f80fd5b81516001600160401b03811162000af157878601603f828789010101121562000af1578585018101602001516001600160401b03811162000b9a5762000b45601f8201601f191660200162000bce565b91818352898801604083838a8c010101011162000af1575f5b82811062000b7f5750505f6020918301820152908252918201910162000104565b806040602092848b8d01010101518282870101520162000b5e565b60245f634e487b7160e01b81526041600452fd5b60408051919082016001600160401b03811183821017620002a957604052565b6040519190601f01601f191682016001600160401b03811183821017620002a957604052565b6001600160401b038111620002a95760051b60200190565b9080601f8301121562000af15781519062000c2b620000da8362000bf4565b9182938184526020808095019260051b82010192831162000af1578301905b82821062000c59575050505090565b81516001600160a01b038116810362000af157815290830190830162000c4a565b9080601f8301121562000af15781519062000c99620000da8362000bf4565b9182938184526020808095019260051b82010192831162000af1578301905b82821062000cc7575050505090565b8151815290830190830162000cb8565b5f198114620005355760010190565b8051821015620002955760209160051b010190565b81811062000d07575050565b5f815560010162000cfb565b919082018092116200053557565b600c5468010000000000000000811015620002a9576001810180600c5581101562000295576020600191600c5f52815f2090831b0192828060a01b03815116838060a01b0319855416178455015191015556fe60806040818152600480361015610014575f80fd5b5f92833560e01c90816303b5f85c146114d05750806309985e67146114b45780630a1bb969146113455780631e2ab318146112895780632442e1cb146111c557806324d7806c1461118757806327c830a9146111635780633ccfd60b146110c25780633d63f215146110a3578063457e8b97146110035780634e553bd314610bcf5780635d0341ba14610b915780636f9fb98a14610ab15780637db3a94614610a405780637ee8b2f814610272578063852ea20314610878578063935481ae146108595780639948747e1461081457806399af90c8146107dd578063b7caccbe1461079a578063b8a07ea21461077c578063bca125f014610760578063d0e30db01461041c578063d3d50d9514610400578063e33b7de3146103dd578063e36f491f14610322578063e89e4ed6146102ab578063f3f43703146102725763fa6869481461015f575f80fd5b3461026e578260031936011261026e57338352600f60205261018660ff8385205416611889565b6013549160ff83161561023e5760145462093a80810180911161022b57421080159061021d575b156101e257505060ff19166013557f9c68e6e839755352b6969c9291d44f48f0d0e85817dc99069e54615ec62131b38180a180f35b906020606492519162461bcd60e51b8352820152601560248201527410d85b9b9bdd0819195858dd1a5d985d19481e595d605a1b6044820152fd5b50610226611bf1565b6101ad565b634e487b7160e01b855260118352602485fd5b906020606492519162461bcd60e51b8352820152600a602482015269139bdd081c185d5cd95960b21b6044820152fd5b8280fd5b503461026e57602036600319011261026e57356001600160a01b0381169081900361026e5782829160209452600d845220549051908152f35b503461026e57602036600319011261026e579181923581526009602052209081549060ff60028251946102ec866102e58160018501611645565b038761172c565b015461030983519586958652608060208701526080860190611508565b9282821615159085015260081c16151560608301520390f35b50903461026e578260031936011261026e5760ff600554818116806103d0575b806103c4575b610351906117e9565b6103606002601254141561178b565b600260125560101c161561038d578261037d600654431015611846565b610385611959565b600160125580f35b906020606492519162461bcd60e51b835282015260116024820152704e6f742074696d656c6f636b206d6f646560781b6044820152fd5b50601354821615610348565b50818160081c1615610342565b5050346103fc57816003193601126103fc576020906011549051908152f35b5080fd5b50903461026e578260031936011261026e576020925051908152f35b50908260031936011261026e5761043233611d2d565b8015610751575b801561073c575b6104499061174e565b600261045981601254141561178b565b8060125560ff601354166107075734156106d257338452602090600a82528285205461069a5761048833611d2d565b1561065857338552600a825234838620556104a5346007546117c8565b8060075560ff60055460101c165f1461061757506104c43482546117c8565b81555b82513481527f2da466a7b24304f47e87fa2e1e5a81b9831ce54fec19055ce277ca2f39ba42c4833392a260075493815480861015610509575b86600160125580f35b6001918260ff19600554161760055581841b918083048214901517156106045750606461053891048096611839565b600855600e61054881548761193b565b9087835b6105b9575b505050507fa3df2761cb043d8fe7af27107cbb6c1a4f46d828865ff4d7851e689633f7316d827f489e283941f854cc0b632e61b02d42b778b987ef1c8f5f873c0f14a7f2968df4958551908152a15490600854908351928352820152a15f8080808080610500565b81548110156105ff57806105cf6105f992611610565b60018060a01b0391549060031b1c168a52600d8752878a206105f28582546117c8565b905561182b565b8361054c565b610551565b634e487b7160e01b885260119052602487fd5b815410156104c75750905162461bcd60e51b8152918201526014602482015273115e18d959591cc81d1bdd185b08185b5bdd5b9d60621b6044820152606490fd5b50905162461bcd60e51b815291820152601860248201527f4f6e6c7920636c69656e74732063616e206465706f73697400000000000000006044820152606490fd5b50905162461bcd60e51b8152918201526013602482015272105b1c9958591e4818dbdb9d1c9a589d5d1959606a1b6044820152606490fd5b815162461bcd60e51b8152602081850152600f60248201526e4d7573742073656e642076616c756560881b6044820152606490fd5b815162461bcd60e51b8152602081850152600f60248201526e10dbdb9d1c9858dd081c185d5cd959608a1b6044820152606490fd5b50338352600f6020528083205460ff16610440565b5061075b33611d7b565b610439565b5050346103fc57816003193601126103fc576020905160338152f35b5050346103fc57816003193601126103fc576020905162093a808152f35b503461026e57602036600319011261026e573591600e548310156107da57506107c4602092611610565b905491519160018060a01b039160031b1c168152f35b80fd5b503461026e57602036600319011261026e5735916001600160a01b03831683036107da575061080d6020926118d5565b9051908152f35b508290346103fc5760203660031901126103fc573590600c548210156107da575061083e90611546565b506001808060a01b0382541691015482519182526020820152f35b5050346103fc57816003193601126103fc576020906010549051908152f35b50903461026e57602080600319360112610a3c5782359261089833611d2d565b8015610a2d575b8015610a19575b6108af9061174e565b60ff60055481811680610a0c575b80610a00575b6108cc906117e9565b60101c166109c75780548403610994578385526009825260ff600284872001541661095f57907f596b9dbf4a34a065b97919d952a438e69135615bbbe14d29df893d0ee0d78e48929184865260098252600283872001600160ff19825416179055610937815461182b565b9055838552600981526109596001838720019251928284938452830190611645565b0390a280f35b915162461bcd60e51b8152918201526011602482015270105b1c9958591e4818dbdb5c1b195d1959607a1b6044820152606490fd5b915162461bcd60e51b815291820152600f60248201526e57726f6e67206d696c6573746f6e6560881b6044820152606490fd5b915162461bcd60e51b815291820152601560248201527454696d65206c6f636b206d6f64652061637469766560581b6044820152606490fd5b506013548216156108c3565b50818160081c16156108bd565b50338552600f82528285205460ff166108a6565b50610a3733611d7b565b61089f565b8380fd5b503461026e578260031936011261026e57610120925060025491600354915460ff6005546006549260075494600854968151988952602089015287015281811615156060870152818160081c161515608087015260101c16151560a085015260c084015260e0830152610100820152f35b5050346103fc57816003193601126103fc574782805481905b808210610b7957505060015481905b808210610b3e575050600e54815b818310610afb5760208561080d8887611839565b909194610b31610b3791610b0e88611610565b905460039190911b1c6001600160a01b03168452600d60205286842054906117c8565b9561182b565b9190610ae7565b9094610b31610b7391610b50886115db565b905460039190911b1c6001600160a01b03168552600d60205286852054906117c8565b90610ad9565b9094610b31610b8b91610b5088611592565b90610aca565b503461026e57602036600319011261026e57356001600160a01b0381169081900361026e57818360ff9260209552600b855220541690519015158152f35b50903461026e5760209081600319360112610a3c578235801515808203610fff57610bf933611d2d565b8015610ff0575b8015610fdc575b610c109061174e565b6005549160ff92838082169182610fce575b505080610fc2575b610c33906117e9565b338752600b90818652848820926001938460ff1982541617905585519081527f47c6fdb382a702777c1bfed3ac17d59dd43017bbbcb49569cae0ece6a59426b5873392a215610f8957610c84611b5d565b9081610edb575b50610c9a575b50505050505b80f35b60055460101c821615610cc6575050505050610cb4611959565b610cbc611c75565b5f80808080610c91565b84545f19810195908611610ec857858752600992838652806002868a2001541615610e85578688528386526002858920015460081c16610e4f57478688528386528488205411610e155750848652818452610d378387206002810161010061ff0019825416179055546011546117c8565b601155600c5490865b828110610d815750505083855282528084205490519081527f80230996023d69b50793fa73f1919127c9d8e741d3989743c479169f22e7a2889190a2610cb4565b610e10908789528487526064610da7878b205485610d9e85611546565b50015490611928565b047f1eac8a3fac20cbc0ab386e1c2f193255a774cea3c8b271d31509bf1ec731618d88610dd384611546565b50546001600160a01b039081168d52600d8252898d208054610df69086906117c8565b9055610e0185611546565b505416928951908152a261182b565b610d40565b835162461bcd60e51b81529081018590526014602482015273496e73756666696369656e742062616c616e636560601b6044820152606490fd5b835162461bcd60e51b8152908101859052601060248201526f105b1c9958591e481c995b19585cd95960821b6044820152606490fd5b845162461bcd60e51b8152808301879052601760248201527f4d696c6573746f6e65206e6f7420636f6d706c657465640000000000000000006044820152606490fd5b634e487b7160e01b875260119052602486fd5b825488925090825b828110610f3b57505082811115610f3357603381029080820460331490151715610f205760638101809111610f205760649004905b10155f610c8b565b634e487b7160e01b885260118752602488fd5b508190610f18565b610f44816115db565b905460039190911b1c6001600160a01b03168a52818852868a20548616610f74575b610f6f9061182b565b610ee3565b92610f81610f6f9161182b565b939050610f66565b505050505050610f97611bf1565b80610fb4575b610fa45780f35b610fac611a3f565b610c97611c75565b50610fbd611b5d565b610f9d565b50601354831615610c2a565b60081c16159050835f610c22565b50338652600f84528286205460ff16610c07565b50610ffa33611d7b565b610c00565b8580fd5b503461026e578260031936011261026e57338352600f60205261102b60ff8385205416611889565b6013549160ff831661106f5760ff1983166001176013554260145583337f9a6c70a9b6cc4c8f400cf98c010ae7db0524ed985860f1c0b7366d82b20000838280a280f35b906020606492519162461bcd60e51b8352820152600e60248201526d105b1c9958591e481c185d5cd95960921b6044820152fd5b5050346103fc57816003193601126103fc576020906014549051908152f35b503461026e578260031936011261026e576110e26002601254141561178b565b6002601255338352600d6020528183205490811561112857508280808093338252600d60205281868120553382f11561111e5750600160125580f35b51903d90823e3d90fd5b606490602084519162461bcd60e51b83528201526015602482015274139bc81c195b991a5b99c81dda5d1a191c985dd85b605a1b6044820152fd5b5050346103fc57816003193601126103fc5760209060ff6013541690519015158152f35b503461026e57602036600319011261026e57356001600160a01b0381169081900361026e57818360ff9260209552600f855220541690519015158152f35b5091346107da57602092836003193601126103fc5790829181606084516111eb816116fc565b828152818882015282868201520152358152600984522081519161120e836116fc565b8154835261127460028251936112328561122b8160018501611645565b038661172c565b86860194855201549160808186019460ff85161515865260ff606088019560081c161515855282519788978189525190880152519186015260a0850190611508565b91511515606084015251151560808301520390f35b50903461026e578260031936011261026e57338352600f6020526112b260ff8285205416611889565b60055460ff81169081611336575b5080611329575b6112d0906117e9565b6112d8611bf1565b156112e65782610c97611a3f565b906020606492519162461bcd60e51b8352820152601c60248201527f496e73756666696369656e742061646d696e20636f6e73656e737573000000006044820152fd5b5060135460ff16156112c7565b60ff915060081c16155f6112c0565b503461026e578260031936011261026e57338352602090600f825261136f60ff8486205416611889565b60ff601354161561147c5760145462093a808101809111611469574210611428575047916113ad8454936113a76001958654906117c8565b9061193b565b918385815b611407575b5085905b6113c3578580f35b8454811015611403576113fd816113da87936115db565b60018060a01b0391549060031b1c168852600d84528488206105f28782546117c8565b906113bb565b8580f35b865481101561142357806113da61141d92611592565b816113b2565b6113b7565b915162461bcd60e51b815291820152601c60248201527f456d657267656e637920706572696f64206e6f742065787069726564000000006044820152606490fd5b634e487b7160e01b855260118252602485fd5b915162461bcd60e51b8152918201526014602482015273456d657267656e6379206e6f742061637469766560601b6044820152606490fd5b5050346103fc57816003193601126103fc5760209051600a8152f35b9291905034610a3c576020366003190112610a3c57356001600160a01b03811690819003610a3c57926020938152600a845220548152f35b91908251928382525f5b848110611532575050825f602080949584010152601f8019910116010190565b602081830181015184830182015201611512565b600c5481101561157e57600c5f5260011b7fdf6966c971051c3d54ec59162606531493a51404a002842f56009d7e5cf4a8c701905f90565b634e487b7160e01b5f52603260045260245ffd5b905f9182548110156115c7578280527f290decd9548b62a8d60345a988386fc84ba6bc95484008f6362f93160ef3e563019190565b634e487b7160e01b83526032600452602483fd5b60015481101561157e5760015f527fb10e2d527612073b26eecdfd717e6a320cf44b4afac2b0732d9fcbe2b7fa0cf601905f90565b600e5481101561157e57600e5f527fbb7b4a454dc3493923482f07822329ed19e8244eff582cc204f8554c3620c3fd01905f90565b80545f939260018083169383821c9385156116f2575b60209586861081146116de578585529081156116bf5750600114611681575b5050505050565b90939495505f92919252835f2092845f945b8386106116ab57505050500101905f8080808061167a565b805485870183015294019385908201611693565b60ff19168685015250505090151560051b010191505f8080808061167a565b634e487b7160e01b5f52602260045260245ffd5b93607f169361165b565b6080810190811067ffffffffffffffff82111761171857604052565b634e487b7160e01b5f52604160045260245ffd5b90601f8019910116810190811067ffffffffffffffff82111761171857604052565b1561175557565b60405162461bcd60e51b815260206004820152600e60248201526d139bdd08185d5d1a1bdc9a5e995960921b6044820152606490fd5b1561179257565b60405162461bcd60e51b815260206004820152600e60248201526d1499595b9d1c985b9d0818d85b1b60921b6044820152606490fd5b919082018092116117d557565b634e487b7160e01b5f52601160045260245ffd5b156117f057565b60405162461bcd60e51b8152602060048201526013602482015272436f6e7472616374206e6f742061637469766560681b6044820152606490fd5b5f1981146117d55760010190565b919082039182116117d557565b1561184d57565b60405162461bcd60e51b8152602060048201526014602482015273151a5b595b1bd8dac81b9bdd08195b185c1cd95960621b6044820152606490fd5b1561189057565b60405162461bcd60e51b815260206004820152601860248201527f4e6f742061646d696e20636f756e63696c206d656d62657200000000000000006044820152606490fd5b600c54905f5b8281106118e9575050505f90565b6118f281611546565b50546001600160a01b038381169116146119145761190f9061182b565b6118db565b600192506119229150611546565b50015490565b818102929181159184041417156117d557565b8115611945570490565b634e487b7160e01b5f52601260045260245ffd5b611967600654431015611846565b60085460ff1960055416600555600c54905f91825b8181106119b257505060207f80230996023d69b50793fa73f1919127c9d8e741d3989743c479169f22e7a28891604051908152a2565b8060646119cf60016119c6611a3a95611546565b50015486611928565b047f1eac8a3fac20cbc0ab386e1c2f193255a774cea3c8b271d31509bf1ec731618d6119fa83611546565b509160018060a01b03809354168852602090600d8252604093848a20611a218382546117c8565b9055611a2c86611546565b5054169351908152a261182b565b61197c565b6005805461ffff19166101001790555f805481475b828210611a85575050507f127a6f1a35dab59c491a32a71869783bdb5702256f5709cb1e60f322ac1529d4339180a2565b611a8e82611592565b60018060a01b0391549060031b1c1691828552602092600a84526040938487205480151580611b54575b80611b49575b611ad7575b505050611ad191925061182b565b90611a54565b611ae4611aed9186611928565b6007549061193b565b8015611ac3579081611b3a7f1eac8a3fac20cbc0ab386e1c2f193255a774cea3c8b271d31509bf1ec731618d93611ad197868c52600d8552898c20611b338382546117c8565b9055611839565b9651908152a282915f80611ac3565b506007541515611abe565b50841515611ab8565b5f8054815b818110611ba257506001811115611b9a576033810290808204603314901517156117d557606381018091116117d55760649004111590565b506001111590565b611bab81611592565b60018060a01b0391549060031b1c165f52600b60205260ff60405f205416611bdc575b611bd79061182b565b611b62565b91611be9611bd79161182b565b929050611bce565b5f600e54815b818110611c2657506033810290808204603314901517156117d557606381018091116117d55760649004111590565b611c2f81611610565b60018060a01b0391549060031b1c165f52600b60205260ff60405f205416611c60575b611c5b9061182b565b611bf7565b91611c6d611c5b9161182b565b929050611c52565b5f8054815b818110611d1b575050600154815b818110611cdf575050600e5490805b828110611ca357505050565b80611cb0611cda92611610565b905460039190911b1c6001600160a01b03168352600b60205260408320805460ff1916905561182b565b611c97565b80611cec611d16926115db565b905460039190911b1c6001600160a01b03168452600b60205260408420805460ff1916905561182b565b611c88565b80611cec611d2892611592565b611c7a565b5f54905f5b828110611d40575050505f90565b611d4981611592565b905460039190911b1c6001600160a01b0390811690831614611d7357611d6e9061182b565b611d32565b505050600190565b60018054915f5b838110611d9157505050505f90565b611d9a816115db565b905460039190911b1c6001600160a01b0390811690831614611dc457611dbf9061182b565b611d82565b505090509056fea26469706673582212207d89f66b6a324b04fd9abc7581ddae7cc53798f059097bb2d57284bf7608aa2164736f6c63430008140033","linkReferences":{}},"methodIdentifiers":{"ADMIN_FEE_PERCENT()":"d3d50d95","CONSENSUS_THRESHOLD()":"bca125f0","EMERGENCY_DURATION()":"b8a07ea2","MAX_PARTIES()":"09985e67","activateEmergency()":"457e8b97","adminCancel()":"1e2ab318","adminConsensusCount()":"935481ae","adminCouncil(uint256)":"b7caccbe","agreement()":"7db3a946","approvals(address)":"5d0341ba","approveAction(bool)":"4e553bd3","clientContributions(address)":"03b5f85c","completeMilestone(uint256)":"852ea203","deactivateEmergency()":"fa686948","deposit()":"d0e30db0","emergencyActivatedAt()":"3d63f215","emergencyPaused()":"27c830a9","forceRelease()":"0a1bb969","freelancerShares(uint256)":"9948747e","getContractBalance()":"6f9fb98a","getFreelancerShare(address)":"99af90c8","getMilestone(uint256)":"2442e1cb","getPendingWithdrawal(address)":"7ee8b2f8","isAdmin(address)":"24d7806c","milestones(uint256)":"e89e4ed6","pendingWithdrawals(address)":"f3f43703","timeLockRelease()":"e36f491f","totalReleased()":"e33b7de3","withdraw()":"3ccfd60b"},"id":18}